:100000000C942A000C9434000C9457000C94340087
:100010000C9434000C9434000C9434000C94340090
:100020000C9434000C9434000C9434000C94340080
:100030000C9434000C9434000C9434000C94340070
:100040000C9434000C9434000C9434000C94340060
:100050000C94340011241FBECFE5D8E0DEBFCDBF25
:100060000E943F000C9497000C940000F894789440
:1000700085B78C6085BF8BB780688BBF0895A398C8
:100080000E9436008AB3806F8ABB8EB584608EBDB5
:1000900020E18CB59DB5815A974018F48BB38BBB8A
:1000A000F8CF8BB382278BBB1DBC1CBCF2CF1F9239
:1000B0000F920FB60F9211242F933F938F939F931C
:1000C000EF93FF93DF9A88EE93E028EC30E0F9019C
:1000D0003197F1F70197D9F7DE9A88EE93E028EC93
:1000E00030E0F9013197F1F70197D9F7DD9A88EE01
:1000F00093E028EC30E0F9013197F1F70197D9F757
:100100008BB38F718BBB88EE93E028EC30E0F90164
:100110003197F1F70197D9F7FF91EF919F918F9167
:100120003F912F910F900FBE0F901F901895F8944C
:02013000FFCFFF
:00000001FF
