:100000000C942A000C9434000C9434000C943400AA
:100010000C9434000C9434000C9434000C94340090
:100020000C9434000C9434000C9434000C94340080
:100030000C9434000C9434000C9434000C94340070
:100040000C9434000C9434000C9434000C94340060
:100050000C94340011241FBECFE5D8E0DEBFCDBF25
:100060000E9436000C9442000C94000080EF8ABB82
:1000700083E08BBB89B38370833011F4DF9AFACFAE
:08008000DF98F8CFF894FFCFE0
:00000001FF
