:100000000C942A000C9434000C9434000C943400AA
:100010000C9434000C9434000C9434000C94340090
:100020000C9434000C9434000C9434000C94340080
:100030000C9434000C9434000C9434000C94340070
:100040000C9434000C9434000C9434000C94340060
:100050000C94340011241FBECFE5D8E0DEBFCDBF25
:100060000E9436000C945B000C94000084E080BF7A
:1000700081E084BB85BB0E94480082E00E9453005F
:100080000E945700823011F4A898F5CFA89AF3CFB8
:1000900080B580BD8CE089B980B5866C80BD8AB1A1
:1000A00088618AB908955D9BFECF8CB908955F9BE6
:0A00B000FECF8CB10895F894FFCF45
:00000001FF
