:100000000C942A000C9434000C9434000C943400AA
:100010000C9434000C9434000C9434000C94340090
:100020000C9434000C9434000C9434000C94340080
:100030000C9434000C9434000C9434000C94340070
:100040000C9434000C9434000C9434000C94340060
:100050000C94340011241FBECFE5D8E0DEBFCDBF25
:100060000E9436000C945A000C9400001F938FE0FD
:100070008ABB1FE00E94470082E00E9452000E945B
:100080005600823011F41BBBF5CF1BBAF3CF80B5FD
:1000900080BD8CE089B980B5866C80BD8AB18861ED
:1000A0008AB908955D9BFECF8CB908955F9BFECF02
:0800B0008CB10895F894FFCF14
:00000001FF
