:100000000C942A000C9434000C9434000C943400AA
:100010000C9434000C9434000C9434000C945A006A
:100020000C9434000C9434000C9434000C943D0077
:100030000C9434000C9434000C9434000C94340070
:100040000C9434000C9434000C9434000C94340060
:100050000C94340011241FBECFE5D8E0DEBFCDBF25
:100060000E946C000C94AA000C94000083B7856079
:1000700083BF89B7816089BF08951F920F920FB621
:100080000F9211248F939F9388B391E0892788BBA7
:100090009F918F910F900FBE0F901F9018958EB566
:1000A0008B608EBD89B7806189BF89E09DE39BBD70
:1000B0008ABD08951F920F920FB60F9211248F934D
:1000C0009F9388B392E0892788BB9F918F910F906F
:1000D0000FBE0F901F90189583E087BB8FE08ABBFF
:1000E000789483B7856083BF89B7816089BF8EB5F7
:1000F0008B608EBD89B7806189BF89E09DE39BBD20
:100100008ABD87E090E00E9491008FE090E00E941D
:100110009100F7CF8031910514F01BBA08958BBB85
:10012000089540E050E069E170E010C040315105B1
:1001300014F01BBA01C04BBB20E23EE4FB01319737
:10014000F1F721503040D1F74F5F5F4F841795078B
:080150006CF70895F894FFCF4D
:00000001FF
