:100000000C942A000C9434000C9434000C943400AA
:100010000C9434000C9434000C9434000C945A006A
:100020000C9434000C9434000C9434000C943D0077
:100030000C9434000C9434000C9434000C94340070
:100040000C9434000C9434000C9434000C94340060
:100050000C94340011241FBECFE5D8E0DEBFCDBF25
:100060000E946C000C9495000C94000083B785608E
:1000700083BF89B7816089BF08951F920F920FB621
:100080000F9211248F939F9388B391E0892788BBA7
:100090009F918F910F900FBE0F901F9018958EB566
:1000A0008B608EBD89B7806189BF89E09DE39BBD70
:1000B0008ABD08951F920F920FB60F9211248F934D
:1000C0009F938BB398E089278BBB9F918F910F9063
:1000D0000FBE0F901F90189581E087BB8FE08ABB01
:1000E000789483B7856083BF89B7816089BF8EB5F7
:1000F0008B608EBD89B7806189BF89E09DE39BBD20
:100100008ABD20E030E049E150E02BBB80E29EE474
:10011000FA013197F1F70197D9F72F5F3F4F283058
:0E01200031059CF320E030E0F0CFF894FFCFE3
:00000001FF
