:100000000C942A000C9434000C9434000C943400AA
:100010000C9434000C9434000C9434000C94530071
:100020000C9434000C9434000C9434000C94340080
:100030000C9434000C9434000C9434000C94340070
:100040000C9434000C9434000C9434000C94340060
:100050000C94340011241FBECFE5D8E0DEBFCDBF25
:100060000E9437000C9465000C9400000895789469
:100070008AB3806F8ABB8EB58B608EBD89B7806175
:1000800089BF88E09DE39BBD8ABD40E128EC30E05C
:100090008BB384278BBB88E893E1F9013197F1F7A3
:1000A0000197D9F7F5CF1F920F920FB60F92112437
:1000B0008F939F938BB390EE89278BBB9F918F91EA
:0E00C0000F900FBE0F901F901895F894FFCF71
:00000001FF
