:100000000C942A000C9434000C9434000C943400AA
:100010000C9434000C9434000C9434000C94340090
:100020000C9434000C9434000C9434000C943D0077
:100030000C9434000C9434000C9434000C94340070
:100040000C9434000C9434000C9434000C94340060
:100050000C94340011241FBECFE5D8E0DEBFCDBF25
:100060000E9452000C945D000C94000083B78560E0
:1000700083BF89B7816089BF08951F920F920FB621
:100080000F9211248F939F9388B391E0892788BBA7
:100090008BB389278BBB9F918F910F900FBE0F90D1
:1000A0001F90189581E087BB8ABB789483B78560E1
:0E00B00083BF89B7816089BFFFCFF894FFCF6F
:00000001FF
