:100000000C942A000C9434000C9434000C943400AA
:100010000C9434000C9434000C9434000C94340090
:100020000C9434000C9434000C9434000C94340080
:100030000C9434000C9434000C9434000C94340070
:100040000C9434000C9434000C9434000C94340060
:100050000C94340011241FBECFE5D8E0DEBFCDBF25
:100060000E943A000C944C000C94000083B7856009
:1000700083BF08958FE08ABB81E087BB1BBA18BAA3
:1000800083B7856083BF91E082B7853FE8F312BEF6
:0C00900088B3892788BBF8CFF894FFCF15
:00000001FF
