:100000000C942A000C9434000C9434000C943400AA
:100010000C9434000C9434000C9434000C94340090
:100020000C9434000C9434000C9434000C94340080
:100030000C9434000C9434000C9434000C94340070
:100040000C9434000C9434000C9434000C94340060
:100050000C94340011241FBECFE5D8E0DEBFCDBF25
:100060000E9436000C9453000C94000080B78B7FE4
:1000700080BF80EF8ABB8FE08BBB89B38F708F30DE
:1000800021F4DF9A8BB3806603C0DF988BB38F793E
:100090008BBB89B399B38E3111F09E3011F4DC988B
:0A00A000ECCFDC9AEACFF894FFCF12
:00000001FF
