:100000000C942A000C9434000C9434000C943400AA
:100010000C9434000C9434000C9434000C94340090
:100020000C9434000C9434000C9434000C94340080
:100030000C9434000C9434000C9434000C94340070
:100040000C9434000C9434000C9434000C94340060
:100050000C94340011241FBECFE5D8E0DEBFCDBF25
:100060000E9437000C9457000C940000089580EF14
:100070008ABB8EB583608EBD1BBA20E030E040E2C3
:100080008CB59DB589509D4310F4DE9AF9CF1DBC07
:100090001CBC8BB380588BBB2F5F3F4F2530310585
:1000A0007CF38BB384278BBB20E030E0E9CFF8945E
:0200B000FFCF80
:00000001FF
